:100000000C942A000C9447000C943C000C943C0087
:100010000C943C000C943C000C943C000C943C0070
:100020000C943C000C943C000C943C000C943C0060
:100030000C943C000C943C000C943C000C943C0050
:100040000C943C000C943C000C943C000C943C0040
:100050000C943C0011241FBECFE5D8E0DEBFCDBF1D
:1000600020E0A0E6B0E001C01D92A236B207E1F7A1
:100070000E947E000C9492000C9400008A98929A40
:100080008BB780648BBF81E085BF789408951F9201
:100090000F920FB60F9211248F939F938FE39CE9D9
:1000A0000197F1F700C0000080B380936000809159
:1000B000600084708093600080916100811105C0B0
:1000C00080916000882329F012C080916000843004
:1000D00071F49091610081E0911180E08093610062
:1000E00080916100882311F0C79A01C0C7989F9141
:1000F0008F910F900FBE0F901F901895BF9A0E947E
:100100003E00809161008111FCCF88B3805888BB8C
:100110002FEF89E698E1215080409040E1F700C040
:080120000000EFCFF894FFCFBF
:00000001FF
